:10000000FCFF022019960000C9950000C995000068
:10001000C9950000C9950000C9950000C995000068
:10002000C9950000C9950000C9950000C995000058
:10003000C9950000C9950000C9950000C995000048
:10004000C9950000C9950000C9950000C995000038
:10005000C9950000C9950000C9950000C995000028
:10006000C9950000C9950000C9950000C995000018
:10007000C9950000C9950000C9950000C995000008
:10008000C9950000C9950000C9950000C9950000F8
:10009000C9950000C9950000C9950000C9950000E8
:1000A000C9950000C9950000C9950000C9950000D8
:1000B000C9950000C9950000C9950000C9950000C8
:1000C000C9950000C9950000C9950000C9950000B8
:1000D000C9950000C9950000C9950000C9950000A8
:1000E000C9950000C9950000C9950000C995000098
:1000F000C9950000C9950000C9950000C995000088
:10010000C9950000C9950000FD950000C995000043
:10011000C9950000C9950000C9950000C995000067
:10012000C9950000C9950000C9950000C995000057
:10013000C9950000C9950000C9950000C995000047
:10014000C9950000C9950000C9950000C995000037
:10015000C9950000C9950000C9950000C995000027
:10016000C9950000C9950000C9950000C995000017
:10017000C9950000C9950000C9950000C995000007
:10018000C9950000C9950000C9950000C9950000F7
:08019000C9950000C9950000AB
:1096180000F012F8FFF7D8FF23F076FF00F0A6FA63
:1096280023F032FF0120FFF7A7FFFFF747FFFFF7FF
:069638006DFFFCE7FEE7F8
:10958C0081B04FF000094FF0000CBDEB0A0F04DC6A
:10959C00BDEB0B0F01DBD446EA464BF8049BBBEB4F
:1095AC000A0FFAD1BCEB0A0F05DDE246D9F800B080
:0A95BC000BF1040BF1E701B070475A
:0C95800001490870704700BFEE00FF1F9B
:1094C40081B0CDF800E0FDF7D9F9FDF79DFDFDF77A
:1094D4007FFD002800D100E0FEE7FDF7D7FD074837
:1094E4000188074801800748018807480180074828
:1094F400FDF77AF8DDF800E001B070472E0BFF1F8E
:10950400780BFF1F300BFF1F7A0BFF1F2C0BFF1F65
:1068800081B0CDF800E04FF080711C48FEF73EFC6F
:106890004FF000711A48FEF7D3FB012149B21948A5
:1068A000016019480068F0B9002149B2154801603B
:1068B00040F28E17C0F2000700BF00BF7F1EFDD15F
:1068C00000BF00BF00BF012149B20E48016040F285
:1068D0008E17C0F2000700BF00BF7F1EFDD100BFB2
:1068E00000BF00BFDDE709490948FEF7CFFCFFF70D
:1068F000D5FDDDF800E001B0704700BF00F10F40AA
:1069000010F10F406020FE436422FE4354D3020086
:04691000801A0600E3
:10510C0081B0CDF800E0034AFFF78AFFDDF800E03C
:08511C0001B07047040104001A
:10502C0081B0CDF800E0FDF781FCDDF800E001B0C7
:02503C007047BB
:1029380083B0CDF800E006460C4615463046FEF753
:1029480029FA40F2FF1306EA03008009002622460E
:102958002946202E39D24FF0010303FA06F402EA81
:1029680004031F46A3422ED104031A4B1C19B300BB
:10297800E51801952C68184B04EA03032B60174BE4
:1029880001EA0304019B1B6843EA0404019B1C60E1
:1029980001F48033B3F5803F15D08401104B1B1927
:1029A8001433029301F400333BB1FC43029B1B68D0
:1029B80003EA0404029B1C6005E0029B1B6843EACF
:1029C8000704029B1C60761CC3E7DDF800E003B037
:1029D800704700BF009004400000FFFFFFFF0000A9
:0429E80000F00F40AC
:100D9C0081B040F2FF1100EA01018909084600F216
:100DAC0009024FF0010101FA02F20449096841EA13
:100DBC00020202490A6001B0704700BF388004404B
:1050400081B0CDF800E0034AFFF7F0FFDDF800E0A3
:0850500001B0704704010200E9
:10528C0081B0CDF800E00A4601460348FFF7EAFC7E
:0C529C00DDF800E001B070470060064043
:104C70008AB0CDF800E0504B984210D100244F4B41
:104C80001C60012464B24E4B1C604E4C4E4B1C60A9
:104C90004E4C4F4B1C604F4C4F4B1C6026E04F4B13
:104CA000984210D100244E4B1C60012464B24D4B3D
:104CB0001C604D4C444B1C604C4C454B1C604C4C98
:104CC000454B1C6012E04B4B98420FD100244A4BDD
:104CD0001C60012464B2494B1C60494C3A4B1C6077
:104CE000484C3B4B1C60484C3B4B1C600191029074
:104CF0001046FDF707FC06AB1846FDF795FC029839
:104D000001994FF0FF39002740F200080022022AE3
:104D100036D8B9F1000F33D04FF0010303FA02F592
:104D20000026322E28D2F400384B1B191B1D1B689D
:104D300005FB03F4079BB3FBF4F30493994203D9F7
:104D4000049BCB1A039302E0049B5B1A0393039B1F
:104D50000593039B4B450BD21746F4002B4B1B19B5
:104D6000D3F80080059C059B002B00D105E000E0F6
:104D70004C46761CA146D4E74C46521CA146C6E7D9
:104D8000441CBB0143EA08032370851C01242B78D3
:104D900064F3C7132B70851C01242B7864F38613EE
:104DA0002B70851D01242B7864F345132B70DDF8DF
:104DB00000E00AB0704700BF00600640DC00FF1F43
:104DC00098069042F50B0000D00BFF1FC90E0000A3
:104DD000D80BFF1FAD0B0000D40BFF1F0070064067
:104DE000E000FF1F9C069042690C00001D0F0000B0
:104DF000D10B000000600E40E400FF1F1805904238
:104E0000510C0000F90E0000E50C0000D0D00200AB
:1026280081B0CDF800E00446FEF75CFC40F2E831EA
:1026380000FB01F3194909680A0F1849096801F0F4
:102648007061090EC8B21549096801F47001090DD5
:10265800CDB21249096801F47021090CCEB2D1B289
:10266800491C09B259430F462360221D411C09B277
:10267800B7FBF1F1116004F20802691C09B2B7FB5B
:10268800F1F1116004F20C02711C09B2B7FBF1F10F
:102698001160DDF800E001B0704700BF44800440DD
:0C0EEC0001480068704700BFBC0BFF1FEE
:1025040081B0CDF800E040F2000C83464FEA8C0124
:102514000BEB01010968B1F1FF3F12D00BF134015B
:102524004FEA8C03C91809680A460BEB03010968D2
:1025340008461146FEF79AFC0CF1010C1FFA8CFCBC
:0A254400E4E7DDF800E001B07047A5
:100E700082B0CDF800E080464FEA581202F0070237
:100E8000914608F01F04A24693010D4AD3184FF073
:100E90000102A240019218460A46019904F0C6F8E0
:100EA0004FEA0933074AD3184FEA8A029C1808F41C
:100EB000E06322681A432260DDF800E002B0704768
:080EC00000F00F400090044017
:10649C0081B00021044801800021044801700021D2
:1064AC000348017001B07047E800FF1FEA00FF1FAE
:0464BC00EB00FF1FD3
:10700C0081B0CDF800E00E4A0E490F48FFF752FA56
:10701C0040F2E01140F22030FFF780FAFF20FEF73B
:10702C00B9FD0021094801700021094801604FF6A3
:10703C00FF7109B207480180DDF800E001B070472C
:10704C00F5340000C52B000011310000F300FF1FC8
:08705C00940BFF1F900BFF1FB6
:1064C00081B0054B1860054B1960054B1A6001241B
:1064D000044B1C8001B07047FC0BFF1F000CFF1F1A
:0864E000F80BFF1FE800FF1F8D
:1065280081B0CDF800E084B28DB24FF6FF73204AF7
:106538001380FEF75FF8FEF7A7F9012808D01D4B76
:106548001D4A13601D4B1E4A13601E4B1E4A1360E2
:106558001E4A14801E4A1580AC4203D300231D4AEC
:10656800137002E05A231B4A1370012140F2000005
:10657800FEF77EF90023002208B404B400230022A9
:1065880000210020FEF788F902B000210020FEF764
:10659800BBF90023104A1370FEF79EF9FEF732F894
:1065A8000E4B0F4A1360DDF800E001B0704700BFE2
:1065B800F000FF1F712A0000FC0BFF1F3D2A00009E
:1065C800000CFF1F3D350000F80BFF1FEC0BFF1FF1
:1065D800EE0BFF1FEF00FF1F0F0CFF1FC14900004C
:0465E800F00BFF1F96
:1045FC0081B001210148017001B07047EC00FF1F30
:1048900081B00248008801B0704700BFE800FF1FE8
:1048780081B0034A1080034A117001B0704700BF2D
:084888000C0CFF1F0E0CFF1FBA
:1048A00081B0BDF80450BDF80860074C2070074C7B
:1048B0002180074C2270074C2370074C2580074C41
:1048C000268001B0704700BFCF0BFF1F040CFF1FF5
:1048D000060CFF1F070CFF1F080CFF1F0A0CFF1F11
:1049100081B0034A1080034A118001B0704700BF84
:08492000260CFF1F280CFF1FED
:1048E00082B0CDF800E04FF2C001C4F20F010648DB
:1048F00000880191054A0146019800F097FBDDF818
:1049000000E002B0704700BFF000FF1F0401040088
:10460C0081B0CDF800E0FEF753FAFEF745FA012130
:10461C0049B276480160FEF73FFAFEF73DFA0021F9
:10462C0049B2734801600120724C2468A0470120F4
:10463C00704C2468A04701206E4C2468A047E220EF
:10464C006C4C2468A04723206B4C2468A0470220A4
:10465C00694C2468A0475420674C2468A047E0208C
:10466C00644C2468A0470120634C2468A047FCF7E5
:10467C000DFFFCF70BFFE0205E4C2468A0470320E5
:10468C005D4C2468A047B0205A4C2468A0472820D1
:10469C00594C2468A0472020574C2468A04703207D
:1046AC00554C2468A0471F20534C2468A047012078
:1046BC00514C2468A047DF204F4C2468A0470020B1
:1046CC004D4C2468A047F0204A4C2468A047032096
:1046DC00494C2468A0473A20464C2468A0476020E7
:1046EC00454C2468A047E620424C2468A04704208F
:1046FC00414C2468A0473A203F4C2468A047B62080
:10470C003D4C2468A047B4203A4C2468A0470420B0
:10471C00394C2468A0472020374C2468A04700203F
:10472C00354C2468A0473020334C2468A0473020F7
:10473C00314C2468A04700202F4C2468A04700204F
:10474C002D4C2468A04700202B4C2468A047B62091
:10475C00284C2468A0470220274C2468A0470D2031
:10476C00254C2468A0470020234C2468A047162021
:10477C00214C2468A04704201F4C2468A04700202B
:10478C001D4C2468A04700201B4C2468A0473620F1
:10479C00184C2468A0471948018819480088884299
:1047AC000CD2FCF799FC20B1A020134C2468A04734
:1047BC0003E06020104C2468A0470BE0FCF78CFC55
:1047CC0020B100200C4C2468A04703E0C0200A4C08
:1047DC002468A0472920074C2468A047012149B22E
:1047EC0003480160DDF800E001B070472810FE437B
:1047FC002C10FE43FC0BFF1F000CFF1FEE0BFF1FCA
:04480C00EC0BFF1F93
:1031100081B0CDF800E0002252B209490A60C1B284
:103120000020FDF78BFD002252B206490A6000BF65
:10313000012252B203490A60DDF800E001B0704795
:083140003010FE433810FE437D
:100C3C00020292B241EA02039BB2014A136070476E
:040C4C00C0F00F40A5
:102BC40081B0CDF800E0012252B209490A60C1B2D5
:102BD4000020FEF731F8002252B206490A6000BF15
:102BE400012252B203490A60DDF800E001B07047E7
:082BF4003010FE433810FE43CF
:102A700081B0CDF800E0002252B208490A60FEF7AA
:102A8000C5F8002252B206490A6000BF012252B2C4
:102A900003490A60DDF800E001B070473010FE43E2
:042AA0003810FE43A9
:100C0C00044A13886FF0FF0103EA010140EA010175
:080C1C0011807047C0F00F4089
:102A3C0081B0CDF800E0012252B208490A60FEF7DD
:102A4C00DFF8002252B206490A6000BF012252B2DE
:102A5C0003490A60DDF800E001B070473010FE4316
:042A6C003810FE43DD
:1029EC0081B0CDF800E0FEF717F9FEF715F90023DA
:1029FC005BB20B490B60012252B20A490A600A49C8
:102A0C000B60FEF7FDF8002252B208490A60012261
:102A1C0052B20A6002490A60DDF800E001B070476A
:102A2C002C10FE433410FE433010FE433810FE438E
:100C240040F22607C0F2000700BF00BF7F1EFDD1BF
:080C340000BF00BF00BF7047C4
:102B740081B0CDF800E0002252B20D490A60012272
:102B840052B20C490A600C490A60FEF73DF8002273
:102B940052B20A490A60012252B20A6004490A6028
:102BA400FEF73EF8FEF73CF8DDF800E001B07047B0
:102BB4002C10FE433410FE433010FE433810FE4305
:102ABC0081B0CDF800E04FF28000C4F20F004FF06F
:102ACC0001014FEA8121224A02F0AAFA002149B2FF
:102ADC00204801604FF28000C4F20F004FF001015A
:102AEC004FEA01311A4A02F09BFA012149B21A4805
:102AFC0001604FF28000C4F20F004FF001014FEA69
:102B0C00C121134A02F08CFA012149B21348016029
:102B1C004FF28000C4F20F004FF001014FEA413137
:102B2C000B4A02F07DFA4FF28000C4F20F004FF016
:102B3C0001014FEA8131064A02F072FA012149B2D1
:102B4C000748016007480160DDF800E001B07047FC
:102B5C00040104002810FE433010FE432C10FE43E9
:082B6C003410FE433810FE4353
:102AA40040F6FE07C0F23D0700BF00BF7F1EFDD108
:082AB40000BF00BF00BF704726
:1014980040F2CE77C0F2000700BF00BF7F1EFDD12B
:0814A80000BF00BF00BF704748
:0C10E40001480078704700BFEE00FF1FBD
:105BA00082B0CDF800E08DF80400002252B2134913
:105BB0000A60BE20124C2468A0470620114C2468BD
:105BC000A0479DF804000F4C2468A04701200D4C0D
:105BD0002468A047FF200B4C2468A0470020094CF4
:105BE0002468A0470120074C2468A047012252B234
:105BF00002490A60DDF800E002B070472C10FE4355
:085C0000FC0BFF1F000CFF1F4D
:106FD40081B0CDF800E03820FEF714FEFFF784F905
:106FE40008B101200CE0FFF799F90120FDF722FC1C
:106FF400002240F2E01140F22030FFF765F9002052
:08700400DDF800E001B0704767
:105C080081B00249087001B0704700BFCE0BFF1F7A
:1062EC0081B0CDF800E0FEF78DFA002840F20001F5
:1062FC0000D90121052840F2000000D2012041EA1A
:10630C00000008B1002000E00120DDF800E001B041
:02631C007047C8
:1048100081B0CDF800E0A720FCF796FDDDF800E0C0
:0448200001B070472C
:1013480082B0CDF800E0C4B201A90C700F4C24683B
:10135800A04701AA0E49097840F20003C8B2114615
:1013680001220C4C2468A04701AA0949097840F2D7
:101378000103C8B211460122074C2468A04701A9FD
:101388000978C8B2DDF800E002B07047D00BFF1F43
:0C139800CE0BFF1FD40BFF1FD80BFF1F54
:100BF40081B0CDF800E00348FFF70AFFDDF800E01C
:080C040001B0704700600640DA
:100A140084B0CDF800E04FF000024649884205D189
:100A240045490C6845490968039115E044498842E1
:100A340006D144490A6844490968039114460BE005
:100A44004249884206D142490A68424909680391E9
:100A5400114600E011460C4601940290FFF738FD60
:100A64000298019C831C0122197862F345111970C4
:100A7400C11C0A78C2F30011F9B1831C0022197851
:100A840062F345111970C31C0122197862F3041131
:100A94001970811D0A78C2F3001129B1831D012246
:100AA400197862F304111970C31C0122197862F3D6
:100AB400410119704FF6FF7038E023460194044653
:100AC4000198E11C0A78C2F3400151B940B123B93D
:100AD4000520039CA047012028E05A1E1346FFE787
:100AE400EFE7A11D0A78C2F3001129B1A31D012269
:100AF400197862F304111970E31C0122197862F366
:100B04004101197005462346D91C0A78C2F34001F5
:100B140059B148B125B90520039CA047012005E03F
:100B2400691E0A461546FFE7EEE70020DDF800E0FF
:100B340004B0704700600640DC00FF1FE00BFF1F9D
:100B440000700640E000FF1FE40BFF1F00600E4032
:080B5400E400FF1FE80BFF1F86
:1004D40082B0CDF800E04FF000021A49884205D1FD
:1004E40019490B6819490968019115E018498842AE
:1004F40006D118490A6818490968019113460BE0A6
:100504001649884206D116490A68164909680191B4
:10051400114600E011460B461D4604462046FFF7EF
:1005240075FF50B943B11DB90720019CA04704E0F1
:10053400691E08460546FFE7F0E7DDF800E002B073
:10054400704700BF00600640DC00FF1FE00BFF1F88
:1005540000700640E000FF1FE40BFF1F00600E4028
:08056400E400FF1FE80BFF1F7C
:1004100081B0C11C0A78C2F3401181F00101C9B258
:06042000C8B201B07047F4
:100C680081B0CDF800E00348FFF7D0FEDDF800E0E2
:080C780001B070470070064056
:100C500081B0CDF800E00348FFF7DCFEDDF800E0EE
:080C600001B0704700600E4076
:100BAC0081B0CDF800E008B413460A46C1B204483F
:100BBC00FFF734FE01B0DDF800E001B0704700BF74
:040BCC00006006407F
:1008280087B0CDF800E005920246C8B20693079C4F
:1008380007944FF000016C4CA24206D16B4C26681D
:100848006B4C24680494314614E06A4CA24205D1EA
:10085800694C2668694C246804940AE0684CA242F2
:1008680006D1684C2168684C246804940E4600E060
:100878000E463146440001910292E1B21046FFF75C
:1008880071FE029A019920B91046FFF7CFFE0020A9
:10089800A5E000273B46069CA34216D2059CE41817
:1008A8002478019202910393E1B21046FFF75AFEB1
:1008B800039B0299019A20B91046FFF7B7FE002062
:1008C8008DE05C1C27463B46E5E7079C012C48D198
:1008D8000B461046C41C2578C5F3400464B141B1E9
:1008E80023B90420049CA047012078E05A1E14462E
:1008F80000E01C462346EDE7861C0025347865F3A6
:10090800451434700A46C41C2578C5F340045CB904
:1009180039B122B90420049CA04701205FE0531E8E
:1009280000E013461A46EEE7841D2578C5F3001447
:100938002CB1861D0125347865F304143470841DA8
:100948002578C5F380142CB1861D0125347865F30C
:1009580086143470C61C0125347865F3410434705C
:100968002AE0961C0125347865F3820434700B461E
:100978001046C41C2578C5F3400464B941B123B9B5
:100988000420049CA047012029E05A1E144600E0D8
:100998001C462346EDE7841D2578C5F300142CB1C9
:1009A800861D0125347865F304143470C61C0125AE
:1009B800347865F3410434700A46C41C2578C5F3BD
:1009C80040045CB139B122B90420049CA04701203D
:1009D80005E0531E00E013461A46EEE70020DDF856
:1009E80000E007B0704700BF00600640DC00FF1F52
:1009F800E00BFF1F00700640E000FF1FE40BFF1F25
:0C0A080000600E40E400FF1FE80BFF1F21
:10056C0082B0CDF800E04FF00003264A904205D14E
:10057C00254A1568254A1268019215E0244A9042D2
:10058C0006D1244A1368244A126801921D460BE0D6
:10059C00224A904206D1224A1368224A12680192DA
:1005AC001A4600E01A461546841C0123227863F390
:1005BC0004122270021D11702C462946C21C13789D
:1005CC00C3F340025AB949B124B90420019CA04795
:1005DC00012012E0621E13461C46FFE7EEE7C41C26
:1005EC000123227863F341022270C21C1378C3F3F7
:1005FC00000282F00102D2B2D0B2DDF800E002B00B
:10060C00704700BF00600640DC00FF1FE00BFF1FBF
:10061C0000700640E000FF1FE40BFF1F00600E405F
:08062C00E400FF1FE80BFF1FB3
:1006340084B0CDF800E04FF000023549884205D17E
:1006440034490C6834490968039115E033498842F8
:1006540006D133490A6833490968039114460BE00B
:100664003149884206D131490A6831490968039100
:10067400114600E011460C46831C0022197862F3EF
:1006840045111970831C0022197862F30411197042
:1006940001940290FFF71CFF0298019C2346C11CA1
:1006A4000A78C2F3400151B944B123B90620039C2E
:1006B400A047012027E05A1E1346FFE7EFE7811DFC
:1006C4000A78C2F3801129B1831D0122197862F3DB
:1006D40086111970C31C0122197862F34101197043
:1006E4002346C11C0A78C2F3400159B14CB123B965
:1006F4000620039CA047012005E0591E0A46134624
:10070400FFE7EEE70020DDF800E004B0704700BF2B
:1007140000600640DC00FF1FE00BFF1F0070064076
:10072400E000FF1FE40BFF1F00600E40E400FF1F0A
:04073400E80BFF1FB0
:100BD00081B0CDF800E008B413460A46C1B204481B
:100BE000FFF722FE01B0DDF800E001B0704700BF62
:040BF000007006404B
:100CE40081B0CDF800E008B413460A46C1B2044806
:100CF400FFF798FD01B0DDF800E001B0704700BFD8
:040D040000600E403D
:100EC80081B0CDF800E008B413460A46C1B2044820
:100ED800FFF72EFC01B0DDF800E001B0704700BF5D
:040EE8000060064060
:1007380085B0CDF800E08DF8041001469DF804005E
:1007480003920493059C05944400A4B244F0010468
:1007580001910846E1B2FFF705FF019918B908466B
:10076800FFF764FF58E08E1C0025347865F3041405
:100778003470049C012C06D18E1C0125347865F355
:10078800C304347005E08E1C0025347865F3C30477
:10079800347001910846FFF743FE0199049C621EDC
:1007A800002A34DB15E0019102920846FFF73EFF6C
:1007B800029A019912E08E1C0125347865F3C3046E
:1007C80034700BE08E1C0025347865F3C304347054
:1007D80004E0002AE7D0012AEDD0F3E73AB90C1D6E
:1007E8002578039C2570039C641C03940BE00191FD
:1007F80002920846FFF714FE029A0199039C2070A2
:10080800039C641C0394541E23461A46C8E7059C9F
:1008180014B9084600F0FAF8DDF800E005B07047B2
:1004280082B0CDF800E04FF000021F49884205D1A4
:100438001E490B681E490968019115E01D4988424B
:1004480006D11D490A681D490968019113460BE048
:100458001B49884206D11B490A681B490968019152
:10046800114600E011460B46011D0C781D46C11CC3
:100478000A78C2F3400159B94BB125B90320019C50
:10048800A04701200BE0691E0A461546FFE7EEE784
:10049800C31C0122197862F341011970E0B2DDF83A
:1004A80000E002B0704700BF00600640DC00FF1F9C
:1004B800E00BFF1F00700640E000FF1FE40BFF1F6A
:0C04C80000600E40E400FF1FE80BFF1F67
:100F1C0081B0CDF800E008B413460A46C1B20448CB
:100F2C00FFF704FC01B0DDF800E001B0704700BF32
:040F3C0000700640FB
:100EF80081B0CDF800E008B413460A46C1B20448F0
:100F0800FFF716FC01B0DDF800E001B0704700BF44
:040F180000600E4027
:1063200081B0CDF800E0002105480170002105484A
:1063300001700020FEF780FADDF800E001B0704740
:08634000C60BFF1FC80BFF1F75
:1048380081B0CDF800E00949087050B1084A07492D
:10484800097804B4074B084AC8B20849FCF70EFDBA
:1048580001B0DDF800E001B0704700BFC10BFF1FD9
:10486800C00BFF1FBB0BFF1FBA0BFF1FB90BFF1FAE
:10127400C4B200984FE01C2464B20C70102464B211
:101284000470142464B21C70182464B21470274DC2
:10129400274C256048E01C2464B20C70182464B206
:1012A4001470142464B21C70102464B20470214DB0
:1012B4001F4C256038E0142464B20C70102464B20E
:1012C4000470182464B21C701C2464B214701A4D87
:1012D400174C256028E0102464B20C70142464B206
:1012E4001470182464B21C701C2464B20470134D6E
:1012F4000F4C256018E0002464B20C70002464B222
:101304000470002464B21C70002464B214700C4D88
:10131400074C256008E0012CADD0022CBBD0032C77
:10132400C9D0042CD7D0E6E7704700BF84D40200AC
:10133400DC0BFF1F80D402008CD4020088D402008E
:041344007CD4020053
:1062CC0081B0CDF800E083B28CB2D0B2FEF7A4FA64
:1062DC00A1B298B2FEF722FBDDF800E001B07047E6
:1048240081B000F0030202490A7001B0704700BF72
:04483400C70BFF1F90
:1049280081B0CDF800E083B28CB21E4A13801E4AD3
:1049380014801E4A1278002A28D01D4A12889342F1
:104948000ED9FCF7F9FA032803D10020FFF766FF18
:1049580005E0FCF7F1FA421CD0B2FFF75FFF10E068
:10496800134A128893420CD2FCF7E6FA18B90320CE
:10497800FFF754FF05E0FCF7DFFA421ED0B2FFF75D
:104988004DFF0B4A13800B4A148006E0084A138037
:10499800084A14800123054A1370DDF800E001B0CD
:1049A800704700BFCA0BFF1FCC0BFF1FC80BFF1FB0
:0849B800C20BFF1FC40BFF1F1F
:100F400081B00248007801B0704700BFC70BFF1F97
:1070900045F6EB217848018040F2203177480180A5
:1070A00040F2E0117648018010217648018076494F
:1070B0007648016002217648018076497648016071
:1070C0000F2176480180764976480160082176488C
:1070D000018076497648016006217648018076492C
:1070E000764801602F2176480180002175480160B3
:1070F0000021754801600021744801600021744836
:1071000001600021734801600021734801605A4901
:10711000724801600021724801703C217148018071
:107120007148724A10602D21714801806A217148AE
:1071300001805021704801800121704801700021B8
:107140006F48018001216F48017001216E48017074
:1071500001216E4801706E496E48016001216E4840
:10716000017001216D4801706D4B6E480360012173
:107170006D48017000216D48018000216C4801704C
:1071800001216C48017000216B4801704FF6FF71BE
:107190006A4801804CF21861694801804CF218611C
:1071A000684801804EF21C71674801806749684851
:1071B0000160314967480160012167480170B421CD
:1071C000664801802D21664801806A21654801805A
:1071D0005021654801800121644801700021644804
:1071E0000180012163480170012163480170012180
:1071F0006248017062496348016001216248017080
:1072000001216248017062480360012161480170F8
:10721000002161480180002160480170012160481F
:10722000017000215F4801704FF6FF715E480180D8
:107230004CF218615D4801804CF218615C48018095
:107240004EF21C715B480180274810600A495A4879
:10725000016002215948017040F22C115848018008
:107260002D21584801806A215748018050215748F4
:107270000180012100F0ACB82C0BFF1F2E0BFF1F6B
:10728000300BFF1F340BFF1FC0D30200380BFF1F52
:107290003C0BFF1F74D40200400BFF1F440BFF1F69
:1072A00000D40200480BFF1F4C0BFF1F3CD4020010
:1072B000500BFF1F540BFF1F5CD40200580BFF1F25
:1072C000320BFF1F640BFF1F680BFF1F5C0BFF1FC0
:1072D000600BFF1F6C0BFF1F700BFF1FF400FF1FE5
:1072E000F800FF1FFA00FF1F495B00007401FF1F39
:1072F000FC00FF1FFE00FF1F0001FF1F0201FF1F18
:107300000401FF1F0601FF1F0701FF1F0801FF1FE8
:107310000000FF1F0C01FF1F1001FF1F1101FF1FC5
:1073200040CA02001401FF1F2401FF1F1801FF1FA4
:107330001A01FF1F1B01FF1F1C01FF1F1E01FF1F62
:107340002001FF1F2201FF1F2601FF1F35520000F1
:107350003001FF1F3801FF1F3C01FF1F3E01FF1FCF
:107360004001FF1F4201FF1F4401FF1F4601FF1F95
:107370004801FF1F4A01FF1F4B01FF1F4C01FF1F68
:107380000100FF1F5001FF1F5401FF1F5501FF1F88
:107390005801FF1F6801FF1F5C01FF1F5E01FF1FF7
:1073A0005F01FF1F6001FF1F6201FF1F6401FF1FDC
:1073B0006601FF1F6A01FF1F7C01FF1F8001FF1F85
:1073C0008201FF1F8401FF1F8601FF1F8801FF1F2D
:1073D0007B48017000217B48018001217A480170BF
:1073E00001217A48017001217948017079497A4870
:1073F00001600121794801700121794801707948C3
:107400000360012178480170002178480180002143
:10741000774801700121774801700021764801709A
:107420004FF6FF71754801804CF218617448018075
:107430004CF21861734801804EF21C717248018051
:1074400072497348016073497348016003217348AE
:10745000017040F2A411724801802D217148018011
:107460006A217148018050217048018001217048D3
:10747000017000216F48018001216F4801700121D6
:107480006E48017001216E4801706E496E480160BE
:1074900001216E48017001216D4801706D48036043
:1074A00001216D48017000216C48018000216C4869
:1074B000017001216B48017000216B4801704FF68B
:1074C000FF716A4801804CF21861694801804CF2F2
:1074D0001861684801804EF21C7167480180674955
:1074E000674801604B4967480160042166480170A4
:1074F0003B21664801809221654801806A216548E8
:1075000001805021644801800121644801700021FC
:1075100063480180012163480170012162480170C4
:10752000012162480170624962480160012162489C
:1075300001700121614801706148036001216148C7
:107540000170002160480180002160480170012124
:107550005F48017000215F4801704FF6FF715E487F
:1075600001804CF218615D4801804CF218615C4862
:1075700001804EF21C715B4801805B495B480160F1
:1075800024495B48016005215A480170B3215A48DB
:1075900001809121594801806A2159480180502178
:1075A0005848018001215848017000215748018046
:1075B0000121574801700121564801700121ABE0BB
:1075C0008A01FF1F8C01FF1F8E01FF1F8F01FF1F0C
:1075D0009001FF1F0200FF1F9401FF1F9801FF1F72
:1075E0009901FF1F9C01FF1FAC01FF1FA001FF1F9E
:1075F000A201FF1FA301FF1FA401FF1FA601FF1F80
:10760000A801FF1FAA01FF1FAE01FF1FD9510000F3
:10761000B801FF1F2C0BFF1FC001FF1FC401FF1F7C
:10762000C601FF1FC801FF1FCA01FF1FCC01FF1FBA
:10763000CE01FF1FD001FF1FD201FF1FD301FF1F8B
:10764000D401FF1F0300FF1FD801FF1FDC01FF1F34
:10765000DD01FF1FE001FF1FF001FF1FE401FF1F1D
:10766000E601FF1FE701FF1FE801FF1FEA01FF1FFF
:10767000EC01FF1FEE01FF1FF201FF1F255100006B
:10768000FC01FF1F0402FF1F0802FF1F0A02FF1F69
:107690000C02FF1F0E02FF1F1002FF1F1202FF1F2E
:1076A0001402FF1F1602FF1F1702FF1F1802FF1F01
:1076B0000400FF1F1C02FF1F2002FF1F2102FF1FEB
:1076C0002402FF1F3402FF1F2802FF1F2A02FF1F90
:1076D0002B02FF1F2C02FF1F2E02FF1F3002FF1F75
:1076E0003202FF1F3602FF1F815100004002FF1FC0
:1076F0004802FF1F4C02FF1F4E02FF1F5002FF1FD8
:107700005202FF1F5402FF1F5602FF1F5802FF1FA5
:107710005A02FF1F5B02FF1F7A4801707A497B48BB
:10772000016001217A48017001217A4801707A488C
:10773000036001217948017000217948018000210E
:107740007848017001217848017000217748017064
:107750004FF6FF71764801804CF218617548018040
:107760004CF21861744801804EF21C71734801801C
:107770007349744801607449744801600621744873
:10778000017040F22B1173480180912172480180F1
:107790006A2172480180502171480180012171489D
:1077A00001700021704801800121704801700121A1
:1077B0006F48017001216F4801706F496F48016087
:1077C00001216F48017001216E4801706E4803600D
:1077D00001216E48017000216D48018000216D4833
:1077E000017001216C48017000216C4801704FF656
:1077F000FF716B4801804CF218616A4801804CF2BD
:107800001861694801804EF21C716848018068491E
:10781000684801604C496848016007216748017069
:1078200040F2A511664801809221664801806A21D4
:10783000654801805021654801800121644801703C
:1078400000216448018001216348017001216348DF
:1078500001700121624801706249634801600121A1
:107860006248017001216248017062480360012191
:107870006148017000216148018000216048017069
:1078800001216048017000215F4801704FF6FF71CF
:107890005E4801804CF218615D4801804CF218612D
:1078A0005C4801804EF21C715B4801805B495C487A
:1078B000016025495B48016008215B4801703B215C
:1078C0005A480180F4215A4801806A2159480180B0
:1078D0005021594801800121584801700021584821
:1078E0000180012157480170012157480170012191
:1078F00056480170564957480160012156480170A9
:107900000121ABE05C02FF1F0500FF1F6002FF1FAB
:107910006402FF1F6502FF1F6802FF1F7802FF1F3E
:107920006C02FF1F6E02FF1F6F02FF1F7002FF1F1E
:107930007202FF1F7402FF1F7602FF1F7A02FF1FF1
:10794000595000008402FF1F2C0BFF1F8C02FF1FE9
:107950009002FF1F9202FF1F9402FF1F9602FF1F5B
:107960009802FF1F9A02FF1F9C02FF1F9E02FF1F2B
:107970009F02FF1FA002FF1F0600FF1FA402FF1FA0
:10798000A802FF1FA902FF1FAC02FF1FBC02FF1FBE
:10799000B002FF1FB202FF1FB302FF1FB402FF1F9E
:1079A000B602FF1FB802FF1FBA02FF1FBE02FF1F71
:1079B000B1500000C802FF1FD002FF1FD402FF1FFA
:1079C000D602FF1FD802FF1FDA02FF1FDC02FF1FD3
:1079D000DE02FF1FE002FF1FE202FF1FE302FF1FA4
:1079E000E402FF1F0700FF1FE802FF1FEC02FF1F5A
:1079F000ED02FF1FF002FF1F0003FF1FF402FF1F35
:107A0000F602FF1FF702FF1FF802FF1FFA02FF1F17
:107A1000FC02FF1FFE02FF1F0203FF1FD9590000D7
:107A20000C03FF1F1403FF1F1803FF1F1A03FF1F80
:107A30001C03FF1F1E03FF1F2003FF1F2203FF1F46
:107A40002403FF1F2603FF1F2703FF1F2803FF1F19
:107A50000800FF1F2C03FF1F3003FF1F7B4801702E
:107A60007B48036001217B48017000217A48018036
:107A700000217A480170012179480170002179487C
:107A800001704FF6FF71784801804CF21861774819
:107A900001804CF21861764801804EF21C717548E5
:107AA0000180754975480160754976480160092172
:107AB00075480170B32175480180F4217448018034
:107AC0006A21744801805021734801800121734864
:107AD000017000217248018001217248017001216A
:107AE000714801700121714801707149714801604C
:107AF00001217148017001217048017070480360D4
:107B000001217048017000216F48018000216F48F9
:107B1000017001216E48017000216E4801704FF61E
:107B2000FF716D4801804CF218616C4801804CF285
:107B300018616B4801804EF21C716A4801806A49E5
:107B40006A4801604E496A4801600A21694801702B
:107B500040F22B1168480180F521684801806A21B4
:107B60006748018050216748018001216648017003
:107B700000216648018001216548017001216548A6
:107B80000170012164480170644965480160012168
:107B90006448017001216448017064480360012158
:107BA0006348017000216348018000216248017030
:107BB0000121624801700021614801704FF6FF7198
:107BC000604801804CF218615F4801804CF21861F6
:107BD0005E4801804EF21C715D4801805D495E483F
:107BE000016027495D4801600B215D48017040F24A
:107BF000A3115C480180F4215B4801806A215B4845
:107C0000018050215A48018001215A480170002109
:107C100059480180012159480170012158480170DB
:107C200001215848017058495848016001215848BD
:107C300001700121574801705748036001215748DE
:107C400001700021564801800021ABE03103FF1F85
:107C50003403FF1F4403FF1F3803FF1F3A03FF1FB6
:107C60003B03FF1F3C03FF1F3E03FF1F4003FF1F9B
:107C70004203FF1F4603FF1F815900005003FF1FEF
:107C80002C0BFF1F5803FF1F5C03FF1F5E03FF1F2A
:107C90006003FF1F6203FF1F6403FF1F6603FF1FD4
:107CA0006803FF1F6A03FF1F6B03FF1F6C03FF1FA7
:107CB0000900FF1F7003FF1F7403FF1F7503FF1FE1
:107CC0007803FF1F8803FF1F7C03FF1F7E03FF1F36
:107CD0007F03FF1F8003FF1F8203FF1F8403FF1F1B
:107CE0008603FF1F8A03FF1F295900009403FF1F0B
:107CF0009C03FF1FA003FF1FA203FF1FA403FF1F7E
:107D0000A603FF1FA803FF1FAA03FF1FAC03FF1F4B
:107D1000AE03FF1FAF03FF1FB003FF1F0A00FF1FCB
:107D2000B403FF1FB803FF1FB903FF1FBC03FF1FEE
:107D3000CC03FF1FC003FF1FC203FF1FC303FF1FAE
:107D4000C403FF1FC603FF1FC803FF1FCA03FF1F93
:107D5000CE03FF1FED5A0000D803FF1FE003FF1FF3
:107D6000E403FF1FE603FF1FE803FF1FEA03FF1FF3
:107D7000EC03FF1FEE03FF1FF003FF1FF203FF1FC3
:107D8000F303FF1FF403FF1F0B00FF1FF803FF1F88
:107D9000FC03FF1FFD03FF1F0004FF1F1004FF1F54
:107DA0000404FF1F7C48017001217C480170002100
:107DB0007B4801704FF6FF717A4801804CF21861E0
:107DC000794801804CF21861784801804EF21C71AC
:107DD00077480180774978480160784978480160A0
:107DE0000C21784801703D217748018040F25911FB
:107DF000764801806A2176480180502175480180CB
:107E000001217548017000217448018001217448E6
:107E10000170012173480170012173480170734999
:107E2000734801600121734801700121724801709B
:107E3000724803600121724801700021714801807D
:107E400000217148017001217048017000217048C3
:107E500001704FF6FF716F4801804CF218616E4857
:107E600001804CF218616D4801804EF21C716C4823
:107E700001806C496C48016050496C4801600D21DB
:107E80006B480170B5216B48018040F259116A4876
:107E900001806A21694801805021694801800121DF
:107EA000684801700021684801800121674801701D
:107EB00001216748017001216648017066496748E1
:107EC0000160012166480170012166480170664821
:107ED000036001216548017000216548018000218F
:107EE00064480170012164480170002163480170F9
:107EF0004FF6FF71624801804CF2186161480180C1
:107F00004CF21861604801804EF21C715F4801809C
:107F10005F496048016029495F4801600E215F4860
:107F2000017040F22D115E48018040F259115D4808
:107F300001806A215C48018050215C480180012158
:107F40005B48017000215B48018001215A480170A3
:107F500001215A48017001215948017059495A4874
:107F600001600121594801700121594801705948A7
:107F70000360012158480170002158480180002108
:107F8000574801700121574801700021564801707F
:107F90004FF6FF7100F0AAB80604FF1F0704FF1F89
:107FA0000804FF1F0A04FF1F0C04FF1F0E04FF1F1D
:107FB0001204FF1F915A00001C04FF1F2C0BFF1F0F
:107FC0002404FF1F2804FF1F2A04FF1F2C04FF1F87
:107FD0002E04FF1F3004FF1F3204FF1F3404FF1F55
:107FE0003604FF1F3704FF1F3804FF1F0C00FF1F5C
:107FF0003C04FF1F4004FF1F4104FF1F4404FF1FF8
:108000005404FF1F4804FF1F4A04FF1F4B04FF1FB7
:108010004C04FF1F4E04FF1F5004FF1F5204FF1F9C
:108020005604FF1F355A00006004FF1F6804FF1F3D
:108030006C04FF1F6E04FF1F7004FF1F7204FF1FFC
:108040007404FF1F7604FF1F7804FF1F7A04FF1FCC
:108050007B04FF1F7C04FF1F0D00FF1F8004FF1F18
:108060008404FF1F8504FF1F8804FF1F9804FF1F5F
:108070008C04FF1F8E04FF1F8F04FF1F9004FF1F3F
:108080009204FF1F9404FF1F9604FF1F9A04FF1F12
:1080900061530000A404FF1FAC04FF1FB004FF1FC6
:1080A000B204FF1FB404FF1FB604FF1FB804FF1F74
:1080B000BA04FF1FBC04FF1FBE04FF1FBF04FF1F45
:1080C000C004FF1F0E00FF1FC404FF1FC804FF1FD2
:1080D000C904FF1FCC04FF1FDC04FF1FD004FF1FD7
:1080E000D204FF1FD304FF1FD404FF1F7C4801806C
:1080F0004CF218617B4801804CF218617A4801808B
:108100004EF21C717948018079497A4801607A49B8
:108110007A4801600F217A48017040F2A511794830
:10812000018040F25911784801806A217748018026
:10813000502177480180012176480170002176485E
:1081400001800121754801700121754801700121EC
:1081500074480170744975480160012174480170C8
:108160000121744801707448036001217348017053
:10817000002173480180002172480170012172487A
:1081800001700021714801704FF6FF717048018045
:108190004CF218616F4801804CF218616E48018002
:1081A0004EF21C716D4801806D496E480160524964
:1081B0006D48016010216D48017040F2A4216C48A7
:1081C00001800F216B48018063216B4801803B21B6
:1081D0006A48018001216A480170002169480180D4
:1081E0000121694801700121684801700121684836
:1081F00001706849684801600121684801700121E7
:1082000067480170674A6848026001216748017049
:1082100000216748018000216648017001216648FD
:1082200001700021654801704FF6FF7164480180BC
:108230004CF21861634801804CF218616248018079
:108240004EF21C716148018003216148017061494F
:10825000614801602849614801601121604801704E
:1082600040F2A4215F48018040F279115E4801800C
:1082700063215E4801803B215D48018001215D480A
:10828000017000215C48018001215C4801700121DE
:108290005B48017001215B4801705B495B480160EC
:1082A00001215B48017001215A4801705A4802605F
:1082B00001215A4801700021594801800021594884
:1082C00001700121584801700021584801704FF693
:1082D000FF71574801804CF21861564800F0ACB865
:1082E000D604FF1FD804FF1FDA04FF1FDE04FF1FA0
:1082F00005530000E804FF1F2C0BFF1FF004FF1FB5
:10830000F404FF1FF604FF1FF804FF1FFA04FF1F09
:10831000FC04FF1FFE04FF1F0005FF1F0205FF1FD7
:108320000305FF1F0405FF1F0F00FF1F0805FF1FA8
:108330000C05FF1F0D05FF1F1005FF1F2005FF1F68
:108340001405FF1F1605FF1F1705FF1F1805FF1F48
:108350001A05FF1F1C05FF1F1E05FF1F2205FF1F1B
:10836000A95200002C05FF1F3405FF1F3805FF1F11
:108370003A05FF1F3C05FF1F3E05FF1F4005FF1F7D
:108380004205FF1F4405FF1F4605FF1F4705FF1F4E
:108390004805FF1F1000FF1F4C05FF1F5005FF1F62
:1083A0005105FF1F48C202005405FF1F6505FF1F4E
:1083B0005805FF1F5A05FF1F5B05FF1F5C05FF1FC8
:1083C0005E05FF1F6005FF1F6205FF1F6605FF1F9B
:1083D0006405FF1FE55800007005FF1F7805FF1FAB
:1083E0007C05FF1F7E05FF1F8005FF1F8205FF1F05
:1083F0008405FF1F8605FF1F8805FF1F8A05FF1FD5
:108400008B05FF1F8C05FF1F1A00FF1F9005FF1F24
:108410009405FF1F9505FF1F9805FF1FA905FF1F66
:108420009C05FF1F9E05FF1F9F05FF1FA005FF1F47
:10843000A205FF1FA405FF1F01804CF218617E48B2
:1084400001804EF21C717D48018003217C4801703F
:108450007C497D4801607D497D48016012217D484D
:10846000017040F239217C48018010217B48018055
:1084700047217B4801801B217A48018000217A48EE
:10848000017001217948017079497A4801607A4A7E
:108490007A4802604CF6FF717948018000217948E2
:1084A00001706A497848016013217848017040F2F0
:1084B000A6217748018054217648018060217648C2
:1084C00001801B217548018001217548017001213F
:1084D00074480170744975480160754802604CF633
:1084E000FF71744801800021734801705749734837
:1084F000016014217248017040F2342171480180FA
:108500003321714801805121704801801B2170483E
:10851000018001216F48017000216F480180012115
:108520006E48017001216E48017001216D48017093
:1085300001216D48017000216C4801704FF6FF71F8
:108540006B4801804CF218616A4801804CF2186156
:10855000694801800121694801704EF21C71684828
:1085600001803A496748016015216748017040F26F
:10857000AD21664801807821654801805121654818
:1085800001801B21644801800121644801700021A1
:108590006348018001216348017001216248017034
:1085A0000121624801700121614801700021614888
:1085B00001704FF6FF71604801804CF218615F480E
:1085C00001804CF218615E48018001215D48017014
:1085D0004EF21C715C4801801C495C480160162108
:1085E0005B48017040F2AD215A480180A0215A48F1
:1085F00001805121594801801B21594801800121E6
:1086000058480170002158480180012157480170E5
:108610000121574801700121564801700121564837
:1086200001700021554801704FF6FF7154480180D8
:108630004CF2186100F0A6B8A605FF1FAA05FF1F9F
:10864000A805FF1F05580000B405FF1F2C0BFF1FD6
:10865000BC05FF1FC005FF1FC205FF1FC405FF1F8C
:10866000C605FF1FC805FF1FD705FF1FD805FF1F41
:108670002400FF1FCC05FF1FB8A80200D005FF1F74
:10868000D405FF1FD605FF1FEC05FF1FF005FF1FD8
:10869000F205FF1FF405FF1FF605FF1FF805FF1F7A
:1086A0000706FF1F0806FF1F2A00FF1FFC05FF1F0C
:1086B0000006FF1F0406FF1F0606FF1FCC09FF1F51
:1086C000D009FF1FD209FF1FD409FF1FD609FF1FC2
:1086D000D809FF1FDA09FF1FDC09FF1FDE09FF1F92
:1086E000DF09FF1FE009FF1FE109FF1FE209FF1F6C
:1086F000E409FF1FE609FF1FE809FF1FEA09FF1F42
:10870000EC09FF1F000AFF1F040AFF1F060AFF1FD4
:10871000080AFF1F0A0AFF1F0C0AFF1F0E0AFF1F8D
:10872000100AFF1F120AFF1F130AFF1F140AFF1F60
:10873000150AFF1F160AFF1F180AFF1F1A0AFF1F3C
:108740001C0AFF1F1E0AFF1F200AFF1F340AFF1FFB
:10875000380AFF1F3A0AFF1F3C0AFF1F3E0AFF1F8D
:10876000400AFF1F420AFF1F440AFF1F460AFF1F5D
:10877000470AFF1F480AFF1F490AFF1F4A0AFF1F37
:108780004C0AFF1F7F4801804CF218617E4801802F
:1087900001217E4801704EF21C717D4801807D49A7
:1087A0007D48016017217D48017040F2AD217C4871
:1087B0000180C8217B48018051217B4801801B2119
:1087C0007A48018001217A480170002179480180AE
:1087D0000121794801700121784801700121784810
:1087E00001700121774801700021774801704FF630
:1087F000FF71764801804CF21861754801804CF297
:108800001861744801800121734801704EF21C7197
:10881000724801805F4972480160182171480170F7
:1088200040F2AD2170480180F12170480180512152
:108830006F4801801B216F48018001216E48017043
:1088400000216E48018001216D48017001216D48B1
:10885000017001216C48017001216C4801700021F8
:108860006B4801704FF6FF716A4801804CF2186145
:10887000694801804CF2186168480180012168480C
:1088800001704EF21C7167480180424966480160E0
:1088900019216648017040F2AD216548018040F21F
:1088A0001C11644801805121634801801B216348E9
:1088B000018001216248017000216248018001218C
:1088C0006148017001216148017001216048017017
:1088D00001216048017000215F4801704FF6FF716F
:1088E0005E4801804CF218615D4801804CF21861CD
:1088F0005C48018001215C4801704EF21C715B48AC
:10890000018024495A4801601A215A48017040F2F6
:10891000272159480180F22158480180692158488F
:1089200001805021574801800021574801700121E2
:108930005648017056495748016000215648017059
:108940000021564801701349554801601B215548C4
:10895000017040F22C2154480180F62153480180D7
:10896000692153480180502152480180002152481A
:1089700001700121514801705149524801600021A4
:1089800000F0A2B84E0AFF1F500AFF1F520AFF1F35
:10899000540AFF1F2C0BFF1F680AFF1F6C0AFF1FE2
:1089A0006E0AFF1F700AFF1F720AFF1F740AFF1F63
:1089B000760AFF1F780AFF1F7A0AFF1F7B0AFF1F34
:1089C0007C0AFF1F7D0AFF1F7E0AFF1F800AFF1F10
:1089D000820AFF1F840AFF1F860AFF1F880AFF1FE3
:1089E0009C0AFF1FA00AFF1FA20AFF1FA40AFF1F65
:1089F000A60AFF1FA80AFF1FAA0AFF1FAC0AFF1F33
:108A0000AE0AFF1FAF0AFF1FB00AFF1FB10AFF1F08
:108A1000B20AFF1FB40AFF1FB60AFF1FB80AFF1FE2
:108A2000BA0AFF1FBC0AFF1FD00AFF1FD40AFF1F8C
:108A3000D60AFF1FD80AFF1FDA0AFF1FDC0AFF1F32
:108A4000DE0AFF1FE00AFF1FE20AFF1FE30AFF1F03
:108A5000E40AFF1FE50AFF1FE60AFF1FE80AFF1FDF
:108A6000EA0AFF1FEC0AFF1FEE0AFF1FF00AFF1FB2
:108A70008C08FF1F9008FF1F9208FF1F9408FF1F1C
:108A80009608FF1F9808FF1FA208FF1FA308FF1FDB
:108A9000D41E01009C08FF1FA008FF1FA108FF1F94
:108AA000B408FF1FB808FF1FBA08FF1FBC08FF1F4C
:108AB000BE08FF1FC008FF1FCA08FF1FCB08FF1F0B
:108AC0007A600100C408FF1F7648017000217648D3
:108AD00001707649764801601C217648017040F2A9
:108AE0002A2175480180F621744801806921744863
:108AF00001805021734801800021734801700121D9
:108B00007248017072497348016000217248017017
:108B10000021724801706549714801601D2171484A
:108B2000017040F2272170480180FC216F480180CC
:108B300069216F48018050216E48018000216E48F4
:108B4000017001216D4801706D496E48016000217E
:108B50006D48017000216D48017054496C480160F6
:108B60001E216C48017040F228216B480180F721DA
:108B70006A48018069216A48018050216948018062
:108B800000216948017001216848017068496948FD
:108B90000160002168480170002168480170434964
:108BA000674801601F216748017040F2292166482B
:108BB0000180F121654801806921654801805021CB
:108BC00064480180002164480170012163480170FC
:108BD00063496448016000216348017000216348D3
:108BE000017032496248016020216248017040F200
:108BF000242161480180F421604801806921604896
:108C0000018050215F48018000215F4801700121EF
:108C10005E4801705E495F48016000215E48017056
:108C200000215E48017021495D48016021215D48B5
:108C3000017040F227215C480180F1215B480180EE
:108C400069215B48018050215A48018000215A481F
:108C5000017001215948017059495A4801600021A9
:108C60005948017000215948017010495848016065
:108C700022215848017040F23E21574801803A2194
:108C80005648018000215648018000215548018046
:108C9000012155480170012154480170544955483B
:108CA0000160A9E0C808FF1FC908FF1F2C0BFF1FA8
:108CB000DC08FF1FE008FF1FE208FF1FE408FF1F9A
:108CC000E608FF1FE808FF1FF208FF1FF308FF1F59
:108CD000889B0000EC08FF1FF008FF1FF108FF1F32
:108CE0000409FF1F0809FF1F0A09FF1F0C09FF1FC6
:108CF0000E09FF1F1009FF1F1A09FF1F1B09FF1F85
:108D00002EDD00001409FF1F1809FF1F1909FF1F9E
:108D10002C09FF1F3009FF1F3209FF1F3409FF1FF5
:108D20003609FF1F3809FF1F4209FF1F4309FF1FB4
:108D30006C2502003C09FF1F4009FF1F4109FF1F6E
:108D40005409FF1F5809FF1F5A09FF1F5C09FF1F25
:108D50005E09FF1F6009FF1F6A09FF1F6B09FF1FE4
:108D6000126702006409FF1F6809FF1F6909FF1FDE
:108D70007C09FF1F8009FF1F8209FF1F8409FF1F55
:108D80008609FF1F8809FF1F9209FF1F9309FF1F14
:108D900020A201008C09FF1F9009FF1F9109FF1FEE
:108DA000A409FF1FA809FF1FAA09FF1FAC09FF1F85
:108DB000AE09FF1FB009FF1FBA09FF1FBB09FF1F44
:108DC000C6E30100B409FF1FB809FF1FB909FF1F5F
:108DD0001C06FF1F2006FF1F2206FF1F2406FF1F81
:108DE0002606FF1F2806FF1F3706FF1F3806FF1F36
:108DF0003500FF1F2C06FF1F7648036000217648D0
:108E00000180002175480170754976480160232171
:108E10007548017040F26421744801803A21744819
:108E200001800021734801800021734801800121E5
:108E300072480170012172480170724972480160E4
:108E4000724803600021724801800021714801705E
:108E500063497148016024217048017040F2552136
:108E60006F48018038216F48018000216E480180E1
:108E700000216E48018001216D48017001216D487B
:108E800001706D496D4801606D48036000216D48B7
:108E9000018000216C48017051496C480160252116
:108EA0006B48017040F2C7216A4801807E216A4800
:108EB0000180002169480180002169480180012169
:108EC000684801700121684801706849684801607C
:108ED00068480360002168480180002167480170EC
:108EE0003F496748016026216648017040F2C82169
:108EF00065480180A6216548018000216448018001
:108F00000021644801800121634801700121634808
:108F1000017063496348016063480360002163484E
:108F200001800021624801702D49624801602721BB
:108F30006148017040F2C92160480180CE2160483B
:108F4000018000215F48018000215F4801800121EC
:108F50005E48017001215E4801705E495E48016013
:108F60005E48036000215E48018000215D48017079
:108F70001B495D48016028215C48017040F2CA210C
:108F80005B480180F7215B48018000215A4801803D
:108F900000215A4801800121594801700121594896
:108FA00001705949594801605948036000215948E6
:108FB0000180002158480170094958480160292161
:108FC0005748017040F2CC215648018040F21F11F1
:108FD00000F0AAB83006FF1F3406FF1F3606FF1F39
:108FE0002C0BFF1F4C06FF1F5006FF1F5206FF1FD2
:108FF0005406FF1F5606FF1F5806FF1F6706FF1F78
:109000006806FF1F3600FF1F5C06FF1F6006FF1F7C
:109010006406FF1F6606FF1F7C06FF1F8006FF1FFA
:109020008206FF1F8406FF1F8606FF1F8806FF1F9C
:109030009706FF1F9806FF1F3700FF1F8C06FF1FB4
:109040009006FF1F9406FF1F9606FF1FAC06FF1F2A
:10905000B006FF1FB206FF1FB406FF1FB606FF1FB4
:10906000B806FF1FC706FF1FC806FF1F3800FF1FF7
:10907000BC06FF1FC006FF1FC406FF1FC606FF1F5A
:10908000DC06FF1FE006FF1FE206FF1FE406FF1FCE
:10909000E606FF1FE806FF1FF706FF1FF806FF1F83
:1090A0003900FF1FEC06FF1FF006FF1FF406FF1F2D
:1090B000F606FF1F0C07FF1F1007FF1F1207FF1FF9
:1090C0001407FF1F1607FF1F1807FF1F2707FF1FA3
:1090D0002807FF1F3A00FF1F1C07FF1F2007FF1F65
:1090E0002407FF1F2607FF1F3C07FF1F4007FF1F26
:1090F0004207FF1F4407FF1F4607FF1F4807FF1FC8
:109100005707FF1F5807FF1F3B00FF1F4C07FF1F9C
:109110005007FF1F5407FF1F5607FF1F6C07FF1F55
:109120007007FF1F7207FF1F674801800021674813
:1091300001800021664801800121664801700121FB
:109140006548017065496648016066480360002112
:1091500065480180002165480170654965480160E6
:109160002A216548017040F29A21644801807F21DC
:10917000634801800D21634801800F21624801800E
:109180000121624801700121614801706149624812
:10919000016062480360002161480180002161484C
:1091A00001705349604801602B216048017040F212
:1091B00099215F480180AA215E4801800D215E4807
:1091C00001800F215D48018001215D48017001216E
:1091D0005C4801705C495D4801605D4803600021A6
:1091E0005C48018000215C48017041495B48016096
:1091F0002C215B48017040F29A215A480180D1210C
:10920000594801800D21594801800F21584801809B
:1092100001215848017001215748017057495848A9
:1092200001605848036000215748018000215748D9
:1092300001702F49564801602D215648017040F2B7
:109240009B2155480180F921544801800D21544843
:1092500001800F21534801800121534801700121F1
:10926000524801705249534801605348036000213D
:10927000524801800021524801701D495148016047
:109280002E215148017040F29A215048018040F24D
:1092900022114F4801800D214E4801800F214E4878
:1092A000018001214D48017001214D4801704D4957
:1092B0004D4801604D48036000214D480180002168
:1092C0004C480170704700BF7407FF1F7607FF1FEF
:1092D0007807FF1F8707FF1F8807FF1F3C00FF1F3E
:1092E0007C07FF1F8007FF1F8407FF1F8607FF1FE4
:1092F0002C0BFF1F9C07FF1FA007FF1FA207FF1FCC
:10930000A407FF1FA607FF1FA807FF1FB707FF1F20
:10931000B807FF1F3D00FF1FAC07FF1FB007FF1F6F
:10932000B407FF1FB607FF1FCC07FF1FD007FF1FA3
:10933000D207FF1FD407FF1FD607FF1FD807FF1F45
:10934000E707FF1FE807FF1F4000FF1FDC07FF1FA5
:10935000E007FF1FE407FF1FE607FF1FFC07FF1FD3
:109360000008FF1F0208FF1F0408FF1F0608FF1F59
:109370000808FF1F1708FF1F1808FF1F4300FF1FE3
:109380000C08FF1F1008FF1F1408FF1F1608FF1FFF
:109390002C08FF1F3008FF1F3208FF1F3408FF1F73
:1093A0003608FF1F3808FF1F4708FF1F4808FF1F28
:1093B0004600FF1F3C08FF1F4008FF1F4408FF1F17
:1093C0004608FF1F5C08FF1F6008FF1F6208FF1FA1
:1093D0006408FF1F6608FF1F6808FF1F7708FF1F4C
:1093E0007808FF1F4900FF1F6C08FF1F7008FF1F50
:0893F0007408FF1F7608FF1F3F
:1065EC008CB0CDF800E000229A490A700021ADF879
:1065FC00041000218DF8061000218DF80C100021DC
:10660C008DF8141000218DF81C1000218DF8241029
:10661C0091490860811C0A8890490988914208D1E7
:10662C008D490968091D0A888D490988914200D154
:10663C0042E08C4A11688DF82C10002149B211608F
:10664C00894B8A4A8A49084611461A46FFF732FF97
:10665C00814B1968091D09888AB219460968891C79
:10666C00098888B291B2FFF759FF7B4B1968091D55
:10667C0009888AB219460968891C098888B291B2BE
:10668C00FEF74CF974490968098888B2FFF7D0FD08
:10669C00FF20FFF77FFA704B1968891C0A886F4935
:1066AC000A8019460968091D0A886D490A809DF8F7
:1066BC002C206C490A6005E067490968098888B292
:1066CC00FFF7B6FD64490968891D0A88BDF80410F6
:1066DC00914280F0BA806049096808310A889DF8B7
:1066EC00061091421CD25C4909680C310A689DF86D
:1066FC0006108900511809680291091D0A78BDF825
:10670C00041091420CD19DF80610491C8DF806100E
:10671C00BDF80410491CADF804100298FFF760FC9A
:10672C004D49096810310A889DF80C1091421CD211
:10673C004949096814310A689DF80C1089005118F0
:10674C0009680491091D0A78BDF8041091420CD116
:10675C009DF80C10491C8DF80C10BDF80410491C48
:10676C00ADF804100498FFF751FA3B490968183149
:10677C000A889DF8141091421CD2374909681C31C3
:10678C000A689DF814108900511809680691091DB2
:10679C000A78BDF8041091420CD19DF81410491CD4
:1067AC008DF81410BDF80410491CADF804100698AF
:1067BC00FFF7DAFB2849096828310A889DF824106C
:1067CC0091421CD2244909682C310A689DF8241086
:1067DC008900511809680A91091D0A78BDF804103E
:1067EC0091420CD19DF82410491C8DF82410BDF851
:1067FC000410491CADF804100A98FFF735FB164934
:10680C00096820310A889DF81C1091421CD212494B
:10681C00096824310A689DF81C1089005118096810
:10682C000891091D0A78BDF8041091420CD19DF80D
:10683C001C10491C8DF81C10BDF80410491CADF837
:10684C0004100898FFF74AFE3CE7DDF800E00CB0B6
:10685C00704700BFF200FF1F740BFF1F780BFF1F68
:10686C007A0BFF1F0010FE43F5340000C52B00000F
:04687C0011310000D6
:10623C0084B0CDF800E0ADF80C00002252B21A493F
:10624C000A60FDF7E1F868B1184909884C1E184935
:10625C000988491EA3B28AB200210020154C24687B
:10626C00A04704E000210020134C2468A0471049EB
:10627C000A880E4909885143029100210191029A22
:10628C000199914208D2BDF80C000C4C2468A0472F
:10629C000199491C0191F2E7012252B202490A60AC
:1062AC00DDF800E004B070472C10FE43EE0BFF1F2E
:1062BC00EC0BFF1FF00BFF1FF40BFF1FF80BFF1F66
:104B280083B0CDF800E09EB293B28AB281B2494C0C
:104B38002488B4F5F07F05D8474C2488B4F5F07F75
:104B480000D804E040F2203840F2E01703E040F2D9
:104B5800E01840F21017414C24785A2C1DD1FCF76C
:104B6800BDFA68B1A8F10105ADB2AC1BADF80440BF
:104B7800AC1AADF80640ADF80810ADF80A300BE0F5
:104B8800ADF80420ADF806607D1EADB2EC1AADF8A4
:104B980008406C1AADF80A401CE0FCF79FFA88B18F
:104BA800A8F10105ADB2EC1AADF804406C1AADF8E5
:104BB80006407D1EADB2AC1BADF80840AC1AADF88E
:104BC8000A4007E0ADF80410ADF80630ADF808204B
:104BD800ADF80A602A20224C2468A047BDF804409A
:104BE800240AE0B21F4C2468A047BDF804001D4CFD
:104BF8002468A047BDF80640240AE0B2194C24688E
:104C0800A047BDF80600174C2468A0472B20144C79
:104C18002468A047BDF80840240AE0B2114C246873
:104C2800A047BDF808000F4C2468A047BDF80A400B
:104C3800240AE0B20B4C2468A047BDF80A00094CCE
:104C48002468A0472C20064C2468A047DDF800E023
:104C580003B07047EC0BFF1FEE0BFF1FEF00FF1FA9
:084C6800FC0BFF1F000CFF1FF5
:1049C00083B0CDF800E09EB293B28AB281B2514C6E
:1049D0002488B4F5F07F05D84F4C2488B4F5F07FD7
:1049E00000D804E040F2203840F2E01712E0494CD1
:1049F0002488B4F5A07F05D8474C2488B4F5A07F5F
:104A000000D804E040F2E01840F2101702E040F253
:104A10004018F027414C24785A2C1DD1FCF762FB3A
:104A200060B1ADF80420ADF806607D1EADB2EC1AA1
:104A3000ADF808406C1AADF80A400CE0A8F1010589
:104A4000ADB2AC1BADF80440AC1AADF80640ADF801
:104A50000810ADF80A301CE0FCF744FB40B1ADF89B
:104A60000410ADF80630ADF80820ADF80A6010E08B
:104A7000A8F10105ADB2EC1AADF804406C1AADF81E
:104A800006407D1EADB2AC1BADF80840AC1AADF8C7
:104A90000A402A20224C2468A047BDF80440240A7A
:104AA000E0B2204C2468A047BDF804001D4C2468E7
:104AB000A047BDF80640240AE0B21A4C2468A0477B
:104AC000BDF80600174C2468A0472B20144C24681E
:104AD000A047BDF80840240AE0B2124C2468A04761
:104AE000BDF808000F4C2468A047BDF80A40240A0E
:104AF000E0B20C4C2468A047BDF80A00094C2468B9
:104B0000A0472C20064C2468A047DDF800E003B045
:104B1000704700BFEC0BFF1FEE0BFF1FEF00FF1FE6
:084B2000FC0BFF1F000CFF1F3E
:104E100083B0CDF800E0ADF80400ADF80810022032
:104E2000174C2468A047BDF80420140AE0B2154CC2
:104E30002468A0470320124C2468A047BDF8040052
:104E4000104C2468A04706200D4C2468A047BDF8EC
:104E50000820140AE0B20B4C2468A0470720084C35
:104E60002468A047BDF80800064C2468A04722200B
:104E7000034C2468A047DDF800E003B0704700BF92
:084E8000FC0BFF1F000CFF1FDB
:104FC40083B0CDF800E0ADF80400ADF808102A2055
:104FD400134C2468A047BDF80420140AE0B2114C15
:104FE4002468A047BDF804000E4C2468A0472B2079
:104FF4000B4C2468A047BDF80820140AE0B2094C01
:105004002468A047BDF80800064C2468A0472C205B
:10501400034C2468A047DDF800E003B0704700BFEC
:08502400FC0BFF1F000CFF1F35
:104EF00083B0CDF800E0ADF80400ADF808102E4AFC
:104F000012785A2A28D102202C4C2468A047BDF8D8
:104F10000420140AE0B22A4C2468A0470320274C3E
:104F20002468A047BDF80400254C2468A04706204B
:104F3000224C2468A047BDF80820140AE0B2204C97
:104F40002468A04707201D4C2468A047BDF808002E
:104F50001B4C2468A04727E00220184C2468A04777
:104F6000BDF80820140AE0B2154C2468A0470320BD
:104F7000124C2468A047BDF80800114C2468A047D3
:104F800006200E4C2468A047BDF80420140AE0B2A5
:104F90000B4C2468A0470720084C2468A047BDF8A4
:104FA0000400074C2468A0472220044C2468A04732
:104FB000DDF800E003B07047EF00FF1FFC0BFF1FA0
:044FC000000CFF1FC3
:104E880083B0CDF800E0ADF80400ADF808102A2092
:104E9800134C2468A047BDF80420140AE0B2114C52
:104EA8002468A047BDF804000E4C2468A0472B20B6
:104EB8000B4C2468A047BDF80820140AE0B2094C3E
:104EC8002468A047BDF80800064C2468A0472C2099
:104ED800034C2468A047DDF800E003B0704700BF2A
:084EE800FC0BFF1F000CFF1F73
:1045940083B0CDF800E0ADF80400ADF808102A208F
:1045A400134C2468A047BDF80420140AE0B2114C4F
:1045B4002468A047BDF804000E4C2468A0472B20B3
:1045C4000B4C2468A047BDF80820140AE0B2094C3B
:1045D4002468A047BDF80800064C2468A0472C2096
:1045E400034C2468A047DDF800E003B0704700BF27
:0845F400FC0BFF1F000CFF1F70
:10348C0083B0CDF800E0ADF80400ADF808102A20A8
:10349C00134C2468A047BDF80420140AE0B2114C68
:1034AC002468A047BDF804000E4C2468A0472B20CC
:1034BC000B4C2468A047BDF80820140AE0B2094C54
:1034CC002468A047BDF80800064C2468A0472C20AF
:1034DC00034C2468A047DDF800E003B0704700BF40
:0834EC00FC0BFF1F000CFF1F89
:1034240083B0CDF800E0ADF80400ADF808102A2010
:10343400134C2468A047BDF80420140AE0B2114CD0
:103444002468A047BDF804000E4C2468A0472B2034
:103454000B4C2468A047BDF80820140AE0B2094CBC
:103464002468A047BDF80800064C2468A0472C2017
:10347400034C2468A047DDF800E003B0704700BFA8
:08348400FC0BFF1F000CFF1FF1
:1034F40082B0CDF800E0ADF80400012252B20C49CC
:103504000A6001AB1978CAB2591C0978C8B2D1B2A1
:10351400FDF792FB002252B206490A6000BF012265
:1035240052B204490A60DDF800E002B0704700BFFF
:083534003010FE433810FE4385
:1035680082B0CDF800E0ADF80400012252B2114952
:103578000A6001A9491C0978C8B2FDF743FB00227B
:1035880052B20D490A6000BF012252B20A490A60CC
:1035980001A90978C8B2FDF735FB002252B20649E5
:1035A8000A6000BF012252B203490A60DDF800E058
:0C35B80002B070473010FE433810FE4394
:10353C00012252B206490A6006490880002252B2A2
:10354C0005490A6000BF012252B203490A60704764
:0C355C003010FE43C0F00F403810FE435A
:1031480081B0CDF800E084B2E10AC8B2C100CDB2C6
:10315800E909C9B2012902D1E91DC8B200E0E8B203
:10316800FFF704FD6109C8B28100CDB2E909C9B20F
:10317800012902D1E91CC8B200E0E8B2FFF7F6FC69
:10318800E100CCB2E109C9B2012902D1E11DC8B2FE
:1031980000E0E0B2FFF7EAFCDDF800E001B07047BC
:1034140081B00248007801B0704700BFEC00FF1F84
:105FEC0083B0CDF800E000F212010978002900F02E
:105FFC0015818C490978012925D1002289490A701B
:10600C0000F22A0109888EB200F22C0109888DB2A7
:10601C0000F228010978CCB200F227010978CBB242
:10602C0000F2320109888AB200F214010978019059
:10603C00C8B291B2DAB2E3B240B420B4FEF72AFC93
:10604C0002B0019821E000F22C0109888EB200F216
:10605C002A0109888DB200F228010978CCB200F22D
:10606C0027010978CBB200F22E0109888AB200F21E
:10607C00140109780190C8B291B2DAB2E3B240B41B
:10608C0020B4FEF707FC02B0019800F20E0109786B
:10609C00CAB200F210010988019088B2D1B2FEF7A1
:1060AC00E5FB019800F208010A8800F20C0109884E
:1060BC00511889B24D1E811D0C8800F20A01098805
:1060CC00611889B24B1E12B221B2019008B211B202
:1060DC001AB22BB2FDF762F8019800F2260109788A
:1060EC0071B100F2240109888AB200F2200109681A
:1060FC000190084691B20222FDF7A2FB01980DE037
:10610C0000F2240109888AB200F22001096801908A
:10611C00084691B20022FDF793FB019800F20801AA
:10612C0009888BB2811D09888AB200F218010968AE
:10613C000190084691B29AB2FDF7CEFA019800F29E
:10614C001C01097829B9811D0988091DADF80810B1
:10615C0026E000F21C01097801290ED1811D0B8863
:10616C0000F20A010A8830490988511A89B2490893
:10617C0089B25918ADF8081012E000F21C01097828
:10618C0002290DD1811D0A8800F20A0109885218D2
:10619C0092B225490988511A89B2091FADF8081025
:1061AC0000F21D01097831B900F208010988091DB6
:1061BC00ADF80A1028E000F21D01097801290FD171
:1061CC0000F208010B8800F20C010A8817490988B3
:1061DC00511A89B2490889B25918ADF80A1013E05E
:1061EC0000F21D01097802290ED100F208010B887A
:1061FC0000F20C010A880D490988511A89B2091F4D
:10620C0089B25918ADF80A1000F218010968BDF8E6
:10621C000A200846BDF80810FDF7CEFADDF800E0BC
:10622C0003B07047F200FF1F040BFF1F060BFF1F8C
:1031A80088B0CDF800E0ADF81000ADF81410ADF817
:1031B8001820ADF81C308C4C24786508EDB2BDF9A8
:1031C8001040641B24B223B2002C03DA00231BB284
:1031D80018B209E0854C2488A34204D3834C248880
:1031E800631E1BB2FFE718B27F4C2478641E24B21A
:1031F80065102DB2BDF91840641924B225B2002C0F
:1032080003DA00252DB229B209E0784C2488A542BA
:1032180004D3764C2488651E2DB2FFE729B2724C80
:103228002478FCB1ADF80410ADF80600BDF91420FF
:10323800FDF78AFEBDF90600BDF90410BDF91C2092
:10324800FDF782FEBDF91020BDF91C10BDF9140070
:10325800FEF7A4F8BDF91820BDF91C10BDF914003B
:10326800FEF79CF8624C2478002C00F0B880614C82
:103278002488ADF80C405C4F3C788DF80E403C46F5
:103288002478641C24B26610B5B2BDF910406419E4
:10329800ADF81040B5B2BDF914406419ADF814404A
:1032A8003C462478A41C24B26610B5B2BDF9184077
:1032B800641BADF81840B5B2BDF91C40641BADF8ED
:1032C8001C404D4C2478002C00F063804B4C247833
:1032D8007CBBBDF91440ADF80A40BDF91C50BDF8DF
:1032E8000A40AC4224D8BDF91450BDF91C40671BF4
:1032F800BDF91450BDF80A40661B414C2588414C65
:103308002488BBB2B2B2A9B2A0B2FDF74FFF012127
:1033180001F0AEFABDF80A20BDF91810BDF9100089
:10332800FDF712FEBDF80A40641CADF80A40D4E768
:103338002EE0BDF91040ADF80840BDF91850BDF8B1
:103348000840AC4224D8BDF91050BDF91840671B9D
:10335800BDF91050BDF80840661B294C2588294C3A
:103368002488BBB2B2B2A9B2A0B2FDF71FFF0121F7
:1033780001F07EFABDF80820BDF91C10BDF9140053
:10338800FEF70CF8BDF80840641CADF80840D4E717
:103398001DE01D4C24880121A0B201F069FABDF995
:1033A8001440ADF80A40BDF91C50BDF80A40AC42C3
:1033B8000DD8BDF80A20BDF91810BDF91000FDF7A9
:1033C800C3FDBDF80A40641CADF80A40EBE7BDF840
:1033D8000C50084C25809DF80E50034C2570DDF8E4
:1033E80000E008B0704700BF0E0CFF1FEC0BFF1F7A
:1033F800CF0BFF1F0C0CFF1F060CFF1F070CFF1F36
:0C3408000A0CFF1F080CFF1F040CFF1F24
:100F500086B0CDF800E0ADF80C00ADF81010ADF89B
:100F60001420BDF91040BDF90C30A34207DDBDF9D6
:100F70000C00BDF91030ADF80C30ADF81000BDF923
:100F80000C30002B04DA00231BB2ADF80C3006E065
:100F90004B4B1C88BDF90C30A34200D38CE0BDF94B
:100FA0001030002B00DA87E0454B1C88BDF910306B
:100FB000A34204D3424B1B885B1EADF810300123C3
:100FC0008DF808303F4B1C789DF80830A34200F2A2
:100FD00073809DF8080000F001031BB21BB9414269
:100FE00009B208B2FFE7441024B221B2BDF91430AF
:100FF0001B191BB2002B08DBBDF914305C1824B29E
:10100000314B1B889C4200D200E04FE02F4B1B78F5
:10101000002B35D1002464B22D4B1C6002F0FAF98C
:1010200060B1BDF914305C18A3B2BDF91020A1B2B3
:10103000BDF90C00274C2468A04708E0BDF9143026
:101040005C18A1B2BDF90C00234C2468A047BDF97F
:101050000C00BDF9103098420DD8204B1C88ADF81B
:101060000400A0B21E4C2468A047BDF80400411C37
:1010700089B288B2EDE7012464B2154B1C6015E01B
:10108000BDF90C00BDF9103098420FD8134B1B88E6
:10109000ADF804009AB2BDF9141000B2FFF796FE45
:1010A000BDF80400431C99B288B2EBE79DF8083004
:1010B0005B1C8DF8083085E7DDF800E006B070476E
:1010C000EC0BFF1F0E0CFF1FEE0BFF1FEA00FF1FB4
:1010D0002C10FE43F00BFF1FF40BFF1F0C0CFF1F27
:0410E000F80BFF1FEB
:100DCC0082B0CDF800E0ADF804200AB201B20029DF
:100DDC0004DB174B1B88994200D200E024E0002A68
:100DEC0004DB144B1B889A4200D200E01CE0002468
:100DFC0064B2114B1C6002F007FB38B193B28AB29B
:100E0C0099B290B20D4C2468A04704E088B291B21C
:100E1C000B4C2468A047BDF804000A4C2468A0477A
:100E2C00012464B2044B1C60DDF800E002B0704792
:100E3C00EC0BFF1FEE0BFF1F2C10FE43F00BFF1FE4
:080E4C00F40BFF1FF80BFF1F60
:1013A40086B0CDF800E0ADF8041001B2BDF9040038
:1013B400814203DD8BB201B218B2FFE7002902DAE1
:1013C400002109B204E02F4B1B88994200D355E059
:1013D400002800DA52E02B4B1B88984205D3294B96
:1013E4001B885B1E18B203B200E003B2012015B2E1
:1013F4000AB219B2244B1B7898423FD8C4B204F005
:1014040001031BB213B9644224B2FFE763101BB299
:101414001EB2EB181BB2002B06DBAC1924B21B4B1B
:101424001B889C4200D200E025E097B28F4222D86C
:10143400174B1C88AB198DF80400ADF80810ADF8F3
:101444000C20ADF81050ADF81260ADF81470A2B2D3
:1014540039B218B2FFF7B8FCBDF81470BDF91260C8
:10146400BDF91050BDF90C20BDF908109DF8040019
:101474007F1CBFB2DAE7401CC0B2BBE7DDF800E076
:1014840006B07047EE0BFF1F0E0CFF1FEC0BFF1F87
:041494000C0CFF1F1E
:1011B40083B0CDF800E087B21FFA81F81FFA82F9F4
:1011C4001FFA83FAB9F1000F01D1B8B24CE0D1454E
:1011D40002D11FFA88F047E002AE0DF1060501AC1A
:1011E40033462A462146B8B2FFF732FE0DF109060E
:1011F4000DF107050DF1050433462A4621461FFA71
:1012040088F0FFF725FE1FFA89F69DF805509DF832
:1012140004402C1B24B2744394FBFAF59DF804405B
:1012240004EB05081FFA89F69DF807509DF806405F
:101234002C1B24B2744394FBFAF59DF806406719FD
:101244001FFA89F69DF809509DF808402C1B24B21A
:10125400744394FBFAF59DF808406419E2B2F9B2BC
:101264005FFA88F0FFF786FDDDF800E003B0704711
:100E540081B0C40AA4B2E4000C704409A4B2A40092
:0A0E64001470C4001C7001B0704748
:100D780081B0C308DBB2DC02A4B28B08DBB25B0132
:100D88009BB21C43A4B2D308DBB244EA030398B273
:040D980001B07047EF
:10384C0081B0124B1860831C1C78C31C1B781B02A4
:10385C009BB2E4180E4B1C80031D1C78431D1B7877
:10386C001B029BB2E4180B4B1C80831D1C780A4B6B
:10387C001C800A4B19800A4B1A700124094B1C70CE
:10388C000024094B1C7001B0704700BF1C0CFF1FBB
:10389C00200CFF1F220CFF1F1A0CFF1F240CFF1FF4
:0C38AC00180CFF1FED00FF1F0F0CFF1F8A
:1036E40082B0CDF800E02B4B1B88994200D34CE00C
:1036F400294B1B889A4200D347E00024274B1C80A7
:103704000024274B1C80274B1980274B1980274BFB
:103714001A80274B1A800446431C19462378DEB2CC
:10372400002B32D0234B1B783BB10191F0B2FDF753
:1037340015FD0199401C80B206E00191F0B2FDF73D
:10374400D5FC0199401C80B21B4B1B78022B0CD179
:103754001A4B1D88124C23885B1923800F4B1B883E
:10376400834201D20D4B18800DE00C4C23881B18AA
:103774002380124B1C880A4B1B88A34203D20F4B95
:103784001C88074B1C800846C5E7DDF800E002B042
:10379400704700BFEC0BFF1FEE0BFF1F040BFF1F56
:1037A400060BFF1F100CFF1F120CFF1F140CFF1F32
:1037B400160CFF1F0F0CFF1F180CFF1F1A0CFF1F06
:1011600081B0CDF800E00F490988884200D215E02F
:101170000D490988884200D910E00A490988411AB6
:1011800089B28A0092B2094909680831891808466B
:101190000421FFF775FD06480178C8B2DDF800E0CC
:1011A00001B07047200CFF1F220CFF1F380CFF1FDF
:0411B0002A0CFF1FE7
:100C800085B0CDF800E0154D0346002922D904AC0B
:100C90000193ADF80810039522461846104C2468BD
:100CA000A047039DBDF80810019B04460020BDF835
:100CB0001020904206D222782A706D1C641C401CC1
:100CC00080B2F4E7BDF81020891A89B2BDF810206F
:100CD0009B18DAE7DDF800E005B070472A0CFF1F2B
:040CE000340CFF1FB2
:1010F00081B0CDF800E085B21449097849B91449A6
:101100000022084640F2000102F0A0FB01220F4934
:101110000A70104909888D4201D2002011E00E4961
:1011200009888D4201D900200BE00A490988691A13
:1011300089B28A0092B20949096808318918097888
:10114000C8B2DDF800E001B0704700BFED00FF1F3E
:10115000D0B90200200CFF1F220CFF1F1C0CFF1F28
:1037C40083B0CDF800E002901C4B1B88994200D3D3
:1037D4002FE01B4B1B889A4200D32AE00020ADF84F
:1037E400040088B291B201F091F8BDF80400029B84
:1037F4001B181B78EBB1134B1B7863B1029B1B188E
:103804001B78ADF8040098B2FFF7F6FABDF804008F
:10381400411C89B20BE0029B1B181B78ADF8040015
:1038240098B2FFF7E9F9BDF80400411C89B288B2E7
:10383400DDE7DDF800E003B0704700BFEC0BFF1FCD
:08384400EE0BFF1F0F0CFF1F2C
:102DFC008AB0CDF800E040F20001ADF824100021BB
:102E0C008DF82610B5490988884200D262E1B44990
:102E1C000988884200D95DE1B0490988411A89B214
:102E2C008A0092B2AF490968083189180846042112
:102E3C00FDF720FFAC4803788DF82730411C09784A
:102E4C00CAB2811C097809025218C11C09780904FC
:102E5C005218A449096889180491DA08D2B2A34916
:102E6C000988514389B2069103F00701C9B221B117
:102E7C009E490A880699891806910699089105AC0D
:102E8C002246069904989A4C2468A0470446059A51
:102E9C00049989180491059A0699891A06910021BA
:102EAC0007919449097821B192490978022900D0F7
:102EBC008CE091490988ADF80A1000218DF80910B1
:102ECC0020468A490A889DF80910914280F070804A
:102EDC008A490988ADF8241000218DF80C100021C6
:102EEC008DF8081004469DF827209DF80810914293
:102EFC0052D29DF80C1059BB0799491C0791089A9E
:102F0C00059991421BD2059A0799914215D9012135
:102F1C00079105AC224606990498754C2468A04785
:102F2C00044606990891059A049989180491059A02
:102F3C000699891A0691204600E0204600E02046BA
:102F4C0001788DF82610401C01218DF80C1000E042
:102F5C0020469DF80C209DF826101140C9B251B1A5
:102F6C006749098801908AB2BDF80A10BDF824009F
:102F7C00FDF726FF0198BDF82410491CADF824106C
:102F8C009DF80C1049008DF80C109DF80810491C88
:102F9C008DF808100446A6E7BDF80A10491CADF8D8
:102FAC000A109DF80910491C8DF80910204688E775
:102FBC005049097829B9BDF824104A1C4F490A8098
:102FCC0003E0BDF80A204C490A8083E04B4909888C
:102FDC00ADF80A1000218DF80910204643490A88E3
:102FEC009DF80910914280F0708043490988ADF832
:102FFC00241000218DF80C1000218DF808100446C7
:10300C009DF827209DF80810914252D29DF80C1083
:10301C0059BB0799491C0791089A059991421BD2F3
:10302C00059A0799914215D90121079105AC2246C1
:10303C00069904982E4C2468A047044606990891DA
:10304C00059A049989180491059A0699891A06918A
:10305C00204600E0204600E0204601788DF826103E
:10306C00401C01218DF80C1000E020469DF80C202E
:10307C009DF826101140C9B251B12149098801901F
:10308C008AB2BDF82410BDF80A00FDF799FE01982C
:10309C00BDF82410491EADF824109DF80C10490001
:1030AC008DF80C109DF80810491C8DF8081004467A
:1030BC00A6E7BDF80A10491CADF80A109DF80910D6
:1030CC00491C8DF80910204688E7BDF824104A1ECB
:1030DC0009490A80DDF800E00AB07047200CFF1F98
:1030EC00220CFF1F380CFF1F2A0CFF1F1A0CFF1F8E
:1030FC00340CFF1F180CFF1F280CFF1F260CFF1F82
:04310C00240CFF1F71
:102BFC0086B0CDF800E087B240F20005002672499D
:102C0C00097849B971490022084640F2000100F0E8
:102C1C0017FE01226C490A706D4909888F4200D257
:102C2C00CEE06C4909888F4200D9C9E0684909880F
:102C3C00791A89B28A0092B2674C216808318B18D4
:102C4C001878591C0978CAB2991C097809025218CB
:102C5C00D91C097809045218214609688C185F4957
:102C6C00097821B15D490978022900D057E05C4907
:102C7C000B880022A046ACB25A4909888A4244D239
:102C8C0059490D8800270024844238D22FB998F86E
:102C9C00006008F101080127FFE706EA0701C9B245
:102CAC0031B3524909888DF80460CDF808808DF84D
:102CBC000C708DF80D20ADF80E308DF81000ADF8BD
:102CCC0012508DF814408AB219B228B2FEF778F877
:102CDC009DF81440BDF812509DF81000BDF80E3050
:102CEC009DF80D209DF80C70DDF808809DF80460AF
:102CFC006D1CADB27900CFB2641CE4B2C4E75B1CAE
:102D0C009BB2521CD2B2ACB2B6E73449097819B9AD
:102D1C00621C35490A8001E031490B8050E0324990
:102D2C000B8800222F4909888A4246D22C490D88EB
:102D3C0000270021A046CCB2844238D22FB998F893
:102D4C00006008F101080127FFE706EA0701C9B294
:102D5C0031B3264909888DF80460CDF808808DF8C8
:102D6C000C708DF80D20ADF80E308DF81000ADF80C
:102D7C0012508DF814408AB229B218B2FEF720F81E
:102D8C009DF81440BDF812509DF81000BDF80E309F
:102D9C009DF80D209DF80C70DDF808809DF80460FE
:102DAC006D1EADB27900CFB2641CE4B2C4E75B1CFB
:102DBC009BB2521CD2B24446B4E76A1E08490A8040
:102DCC00DDF800E006B07047ED00FF1FD0B902003F
:102DDC00200CFF1F220CFF1F1C0CFF1F180CFF1FC9
:102DEC00280CFF1F1A0CFF1F260CFF1F240CFF1FA3
:105C180083B0CDF800E000F212010978002900F005
:105C28001B818F490978012925D100228C490A70E6
:105C380000F22A0109888EB200F22C0109888DB27F
:105C480000F228010978CCB200F227010978CBB21A
:105C580000F2320109888AB200F214010978019031
:105C6800C8B291B2DAB2E3B240B420B4FEF714FE7F
:105C780002B0019821E000F22C0109888EB200F2EE
:105C88002A0109888DB200F228010978CCB200F205
:105C980027010978CBB200F22E0109888AB200F2F6
:105CA800140109780190C8B291B2DAB2E3B240B4F3
:105CB80020B4FEF7F1FD02B0019800F20E01097858
:105CC800CAB200F210010988019088B2D1B2FEF779
:105CD800CFFD019800F230010978CEB200F2080138
:105CE8000A8800F20C010988511889B28D1E811D9D
:105CF8000C8800F20A010988611889B28B1E521CAF
:105D0800611C019088B291B29AB2ABB240B4FDF76F
:105D18000FFE01B0019800F22601097871B100F276
:105D2800240109888AB200F2200109680190084616
:105D380091B20222FDF786FD01980DE000F22401E0
:105D480009888AB200F2200109680190084691B2D8
:105D58000022FDF777FD019800F2080109888BB24F
:105D6800811D09888AB200F2180109680190084665
:105D780091B29AB2FDF7B2FC019800F21C010978C1
:105D880029B9811D0988091DADF8081026E000F21F
:105D98001C01097801290ED1811D0B8800F20A0126
:105DA8000A8830490988511A89B2490889B25918AC
:105DB800ADF8081012E000F21C01097802290DD193
:105DC800811D0A8800F20A010988521892B22549F1
:105DD8000988511A89B2091FADF8081000F21D018F
